{
  "contractName": "Handshake",
  "abi": [
    {
      "constant": true,
      "inputs": [
        {
          "name": "",
          "type": "address"
        }
      ],
      "name": "agencyExists",
      "outputs": [
        {
          "name": "",
          "type": "bool"
        }
      ],
      "payable": false,
      "type": "function"
    },
    {
      "constant": false,
      "inputs": [
        {
          "name": "agency",
          "type": "address"
        }
      ],
      "name": "registerAgency",
      "outputs": [
        {
          "name": "",
          "type": "bool"
        }
      ],
      "payable": false,
      "type": "function"
    },
    {
      "constant": true,
      "inputs": [
        {
          "name": "",
          "type": "uint256"
        }
      ],
      "name": "agencies",
      "outputs": [
        {
          "name": "",
          "type": "address"
        }
      ],
      "payable": false,
      "type": "function"
    },
    {
      "constant": true,
      "inputs": [
        {
          "name": "",
          "type": "address"
        }
      ],
      "name": "laborContractExists",
      "outputs": [
        {
          "name": "",
          "type": "bool"
        }
      ],
      "payable": false,
      "type": "function"
    },
    {
      "constant": false,
      "inputs": [
        {
          "name": "data",
          "type": "string"
        }
      ],
      "name": "createLaborContract",
      "outputs": [
        {
          "name": "",
          "type": "address"
        }
      ],
      "payable": false,
      "type": "function"
    },
    {
      "constant": true,
      "inputs": [
        {
          "name": "index",
          "type": "uint256"
        }
      ],
      "name": "getLaborContractAt",
      "outputs": [
        {
          "name": "",
          "type": "address"
        }
      ],
      "payable": false,
      "type": "function"
    },
    {
      "constant": true,
      "inputs": [],
      "name": "owner",
      "outputs": [
        {
          "name": "",
          "type": "address"
        }
      ],
      "payable": false,
      "type": "function"
    },
    {
      "constant": true,
      "inputs": [
        {
          "name": "",
          "type": "uint256"
        }
      ],
      "name": "laborContracts",
      "outputs": [
        {
          "name": "",
          "type": "address"
        }
      ],
      "payable": false,
      "type": "function"
    },
    {
      "constant": true,
      "inputs": [
        {
          "name": "agency",
          "type": "address"
        }
      ],
      "name": "isRegistered",
      "outputs": [
        {
          "name": "",
          "type": "bool"
        }
      ],
      "payable": false,
      "type": "function"
    },
    {
      "inputs": [],
      "payable": false,
      "type": "constructor"
    },
    {
      "anonymous": false,
      "inputs": [
        {
          "indexed": true,
          "name": "agency",
          "type": "address"
        },
        {
          "indexed": true,
          "name": "atAddress",
          "type": "address"
        },
        {
          "indexed": false,
          "name": "data",
          "type": "string"
        }
      ],
      "name": "LogLaborContractCreated",
      "type": "event"
    },
    {
      "anonymous": false,
      "inputs": [
        {
          "indexed": true,
          "name": "sender",
          "type": "address"
        },
        {
          "indexed": true,
          "name": "agency",
          "type": "address"
        }
      ],
      "name": "LogRegistration",
      "type": "event"
    }
  ],
  "bytecode": "0x6060604052341561000f57600080fd5b5b5b60008054600160a060020a03191633600160a060020a03161790555b5b5b610bd48061003e6000396000f300606060405236156100965763ffffffff7c01000000000000000000000000000000000000000000000000000000006000350416632a3c6757811461009b5780632aaf0ed4146100ce5780633c8d830d146101015780635d1713ee1461013357806366948834146101665780637573e859146101d35780638da5cb5b1461020557806390450a8b14610234578063c3c5a54714610266575b600080fd5b34156100a657600080fd5b6100ba600160a060020a0360043516610299565b604051901515815260200160405180910390f35b34156100d957600080fd5b6100ba600160a060020a03600435166102ae565b604051901515815260200160405180910390f35b341561010c57600080fd5b61011760043561035a565b604051600160a060020a03909116815260200160405180910390f35b341561013e57600080fd5b6100ba600160a060020a036004351661038c565b604051901515815260200160405180910390f35b341561017157600080fd5b61011760046024813581810190830135806020601f820181900481020160405190810160405281815292919060208401838380828437509496506103a195505050505050565b604051600160a060020a03909116815260200160405180910390f35b34156101de57600080fd5b61011760043561054d565b604051600160a060020a03909116815260200160405180910390f35b341561021057600080fd5b610117610586565b604051600160a060020a03909116815260200160405180910390f35b341561023f57600080fd5b610117600435610595565b604051600160a060020a03909116815260200160405180910390f35b341561027157600080fd5b6100ba600160a060020a03600435166105c7565b604051901515815260200160405180910390f35b60046020526000908152604090205460ff1681565b60006102b9826105c7565b156102c357600080fd5b60038054600181016102d583826105e9565b916000526020600020900160005b81546101009190910a600160a060020a03818102199092168683169182021790925560008281526004602052604090819020805460ff191660011790559192503316907fc2368abc5c5c8dae7f6e555d33cd3a8fa9a789223d393a87ee3ed53bb99cfb8c905160405180910390a35060015b919050565b600380548290811061036857fe5b906000526020600020900160005b915054906101000a9004600160a060020a031681565b60026020526000908152604090205460ff1681565b6000806103ad336105c7565b15156103b857600080fd5b826103c1610613565b60208082528190810183818151815260200191508051906020019080838360005b838110156103fb5780820151818401525b6020016103e2565b50505050905090810190601f1680156104285780820380516001836020036101000a031916815260200191505b5092505050604051809103906000f080151561044357600080fd5b90506001805480600101828161045991906105e9565b916000526020600020900160005b81546101009190910a600160a060020a03818102199092168583169182021790925560008281526002602052604090819020805460ff191660011790559192503316907f3bad7543069bd315ad2af305dddade992ae0cb3c7b539f3295982b8157cb6bde9086905160208082528190810183818151815260200191508051906020019080838360005b838110156105095780820151818401525b6020016104f0565b50505050905090810190601f1680156105365780820380516001836020036101000a031916815260200191505b509250505060405180910390a38091505b50919050565b600060018281548110151561055e57fe5b906000526020600020900160005b9054906101000a9004600160a060020a031690505b919050565b600054600160a060020a031681565b600180548290811061036857fe5b906000526020600020900160005b915054906101000a9004600160a060020a031681565b600160a060020a03811660009081526004602052604090205460ff165b919050565b81548183558181151161060d5760008381526020902061060d918101908301610623565b5b505050565b6040516105648061064583390190565b61064191905b8082111561063d5760008155600101610629565b5090565b9056006060604052341561000f57600080fd5b6040516105643803806105648339810160405280805190910190505b600081805161003e929160200190610046565b505b506100e6565b828054600181600116156101000203166002900490600052602060002090601f016020900481019282601f1061008757805160ff19168380011785556100b4565b828001600101855582156100b4579182015b828111156100b4578251825591602001919060010190610099565b5b506100c19291506100c5565b5090565b6100e391905b808211156100c157600081556001016100cb565b5090565b90565b61046f806100f56000396000f300606060405236156100755763ffffffff7c01000000000000000000000000000000000000000000000000000000006000350416632ca15122811461007a5780634542c154146100a1578063a68b91ab146100d3578063bf6a14131461015e578063d80a93d614610191578063d9e9f5ac146101c3575b600080fd5b341561008557600080fd5b61008d6101f6565b604051901515815260200160405180910390f35b34156100ac57600080fd5b6100b760043561029b565b604051600160a060020a03909116815260200160405180910390f35b34156100de57600080fd5b6100e66102d4565b60405160208082528190810183818151815260200191508051906020019080838360005b838110156101235780820151818401525b60200161010a565b50505050905090810190601f1680156101505780820380516001836020036101000a031916815260200191505b509250505060405180910390f35b341561016957600080fd5b61008d600160a060020a036004351661037d565b604051901515815260200160405180910390f35b341561019c57600080fd5b6100b760043561039f565b604051600160a060020a03909116815260200160405180910390f35b34156101ce57600080fd5b61008d600160a060020a03600435166103d1565b604051901515815260200160405180910390f35b60006102013361037d565b1561020b57600080fd5b6001805480820161021c83826103e6565b916000526020600020900160005b8154600160a060020a033381166101009390930a8381029102199091161790915560008181526002602052604090819020805460ff191660011790559091507f668600f99bc65ead243dc45233e8f70d30602be39597774cead709d835f2e49f905160405180910390a25060015b90565b60006001828154811015156102ac57fe5b906000526020600020900160005b9054906101000a9004600160a060020a031690505b919050565b6102dc610410565b60008054600181600116156101000203166002900480601f0160208091040260200160405190810160405280929190818152602001828054600181600116156101000203166002900480156103725780601f1061034757610100808354040283529160200191610372565b820191906000526020600020905b81548152906001019060200180831161035557829003601f168201915b505050505090505b90565b600160a060020a03811660009081526002602052604090205460ff165b919050565b60018054829081106103ad57fe5b906000526020600020900160005b915054906101000a9004600160a060020a031681565b60026020526000908152604090205460ff1681565b81548183558181151161040a5760008381526020902061040a918101908301610422565b5b505050565b60206040519081016040526000815290565b61029891905b8082111561043c5760008155600101610428565b5090565b905600a165627a7a72305820b4f646c78b01fb9fa5f96e556262225d017de6199e6bd0896717925df4a199a20029a165627a7a7230582016f671099fb6ab7010849b46401d87abc56bbd82fd881557ec070120c8b9db220029",
  "source": "pragma solidity ^0.4.15;\n\nimport \"./LaborContract.sol\";\nimport \"./interfaces/HandshakeI.sol\";\nimport \"./Owned.sol\";\n\ncontract Handshake is Owned, HandshakeI {\n\n  address[] public laborContracts;\n  mapping(address => bool) public laborContractExists;\n\n  address[] public agencies;\n  mapping(address => bool) public agencyExists;\n\n  event LogLaborContractCreated(address indexed agency, address indexed atAddress, string data);\n  event LogRegistration(address indexed sender, address indexed agency);\n\n  // nothing special here for now\n  function Handshake() {}\n\n  function createLaborContract(string data) public returns(address){\n    require(isRegistered(msg.sender));\n    LaborContract laborContract = new LaborContract(data);\n    laborContracts.push(laborContract);\n    laborContractExists[laborContract] = true;\n    LogLaborContractCreated(msg.sender, laborContract, data);\n    return laborContract;\n  }\n\n  function registerAgency(address agency) public  returns(bool){\n    require(!isRegistered(agency));\n    agencies.push(agency);\n    agencyExists[agency] = true;\n    LogRegistration(msg.sender, agency);\n    return true;\n  }\n\n  function isRegistered(address agency) public constant returns(bool){\n    return agencyExists[agency];\n  }\n  /*For GUI iteration*/\n  function getLaborContractAt(uint index) public constant returns(address){\n    return laborContracts[index];\n  }\n}\n",
  "sourcePath": "/Users/albert/ethereum/bsic/handshake/contracts/Handshake.sol",
  "schemaVersion": "1.0.0",
  "updatedAt": "2017-09-29T21:50:10.007Z"
}