{
  "contractName": "LaborContract",
  "abi": [
    {
      "constant": false,
      "inputs": [],
      "name": "sign",
      "outputs": [
        {
          "name": "",
          "type": "bool"
        }
      ],
      "payable": false,
      "type": "function"
    },
    {
      "constant": false,
      "inputs": [
        {
          "name": "index",
          "type": "uint256"
        }
      ],
      "name": "getSigneeAt",
      "outputs": [
        {
          "name": "",
          "type": "address"
        }
      ],
      "payable": false,
      "type": "function"
    },
    {
      "constant": true,
      "inputs": [],
      "name": "getContractData",
      "outputs": [
        {
          "name": "",
          "type": "string"
        }
      ],
      "payable": false,
      "type": "function"
    },
    {
      "constant": false,
      "inputs": [
        {
          "name": "signee",
          "type": "address"
        }
      ],
      "name": "hasSigned",
      "outputs": [
        {
          "name": "",
          "type": "bool"
        }
      ],
      "payable": false,
      "type": "function"
    },
    {
      "constant": true,
      "inputs": [
        {
          "name": "",
          "type": "uint256"
        }
      ],
      "name": "signees",
      "outputs": [
        {
          "name": "",
          "type": "address"
        }
      ],
      "payable": false,
      "type": "function"
    },
    {
      "constant": true,
      "inputs": [
        {
          "name": "",
          "type": "address"
        }
      ],
      "name": "signeeExists",
      "outputs": [
        {
          "name": "",
          "type": "bool"
        }
      ],
      "payable": false,
      "type": "function"
    },
    {
      "inputs": [
        {
          "name": "data",
          "type": "string"
        }
      ],
      "payable": false,
      "type": "constructor"
    },
    {
      "anonymous": false,
      "inputs": [
        {
          "indexed": true,
          "name": "signee",
          "type": "address"
        }
      ],
      "name": "LogContractSigned",
      "type": "event"
    }
  ],
  "bytecode": "0x6060604052341561000f57600080fd5b6040516105643803806105648339810160405280805190910190505b600081805161003e929160200190610046565b505b506100e6565b828054600181600116156101000203166002900490600052602060002090601f016020900481019282601f1061008757805160ff19168380011785556100b4565b828001600101855582156100b4579182015b828111156100b4578251825591602001919060010190610099565b5b506100c19291506100c5565b5090565b6100e391905b808211156100c157600081556001016100cb565b5090565b90565b61046f806100f56000396000f300606060405236156100755763ffffffff7c01000000000000000000000000000000000000000000000000000000006000350416632ca15122811461007a5780634542c154146100a1578063a68b91ab146100d3578063bf6a14131461015e578063d80a93d614610191578063d9e9f5ac146101c3575b600080fd5b341561008557600080fd5b61008d6101f6565b604051901515815260200160405180910390f35b34156100ac57600080fd5b6100b760043561029b565b604051600160a060020a03909116815260200160405180910390f35b34156100de57600080fd5b6100e66102d4565b60405160208082528190810183818151815260200191508051906020019080838360005b838110156101235780820151818401525b60200161010a565b50505050905090810190601f1680156101505780820380516001836020036101000a031916815260200191505b509250505060405180910390f35b341561016957600080fd5b61008d600160a060020a036004351661037d565b604051901515815260200160405180910390f35b341561019c57600080fd5b6100b760043561039f565b604051600160a060020a03909116815260200160405180910390f35b34156101ce57600080fd5b61008d600160a060020a03600435166103d1565b604051901515815260200160405180910390f35b60006102013361037d565b1561020b57600080fd5b6001805480820161021c83826103e6565b916000526020600020900160005b8154600160a060020a033381166101009390930a8381029102199091161790915560008181526002602052604090819020805460ff191660011790559091507f668600f99bc65ead243dc45233e8f70d30602be39597774cead709d835f2e49f905160405180910390a25060015b90565b60006001828154811015156102ac57fe5b906000526020600020900160005b9054906101000a9004600160a060020a031690505b919050565b6102dc610410565b60008054600181600116156101000203166002900480601f0160208091040260200160405190810160405280929190818152602001828054600181600116156101000203166002900480156103725780601f1061034757610100808354040283529160200191610372565b820191906000526020600020905b81548152906001019060200180831161035557829003601f168201915b505050505090505b90565b600160a060020a03811660009081526002602052604090205460ff165b919050565b60018054829081106103ad57fe5b906000526020600020900160005b915054906101000a9004600160a060020a031681565b60026020526000908152604090205460ff1681565b81548183558181151161040a5760008381526020902061040a918101908301610422565b5b505050565b60206040519081016040526000815290565b61029891905b8082111561043c5760008155600101610428565b5090565b905600a165627a7a72305820b4f646c78b01fb9fa5f96e556262225d017de6199e6bd0896717925df4a199a20029",
  "source": "pragma solidity ^0.4.15;\n\nimport \"./interfaces/LaborContractI.sol\";\n\ncontract LaborContract is LaborContractI {\n\n\tstring contractData;\n\taddress[] public signees;\n\tmapping(address => bool) public signeeExists;\n\n\tevent LogContractSigned(address indexed signee);\n\n\tfunction LaborContract(string data){\n\t\tcontractData = data;\n\t}\n\n\t// To be completed by the potential future employee, from their uPort identity.\n\tfunction sign()\n\tpublic\n\treturns (bool){\n\t\trequire(!hasSigned(msg.sender));\n\t\tsignees.push(msg.sender);\n\t\tsigneeExists[msg.sender] = true;\n\t\tLogContractSigned(msg.sender);\n\t\treturn true;\n\t}\n\n\tfunction getContractData() public constant returns(string){\n\t\treturn contractData;\n\t}\n\n\tfunction hasSigned(address signee) public returns (bool){\n\t\treturn signeeExists[signee];\n\t}\n\n\tfunction getSigneeAt(uint index) public returns (address){\n\t\treturn signees[index];\n\t}\n}\n",
  "sourcePath": "/Users/albert/ethereum/bsic/handshake/contracts/LaborContract.sol",
  "schemaVersion": "1.0.0",
  "updatedAt": "2017-09-29T21:38:44.873Z"
}